:100000000C9446000C9465000C9465000C946500FB
:100010000C9465000C9465000C9465000C946500CC
:100020000C9465000C9465000C9465000C946500BC
:100030000C9465000C94A3000C9465000C9465006E
:100040000C9465000C9465000C9465000C9465009C
:100050000C9465000C9465000C9465000C9465008C
:100060000C9465000C9465000C9465000C9465007C
:100070000C9465000C9465000C9465000C9465006C
:100080000C9465000C9465000C94650011241FBE4F
:10009000CFEFD0E4DEBFCDBF11E0A0E0B1E0ECECEB
:1000A000F9E000E00BBF02C007900D92A233B10748
:1000B000D9F721E0A2E3B1E001C01D92A734B20755
:1000C000E1F70E94E5020C94E4040C940000CF9345
:1000D000C82F8A3019F48DE00E9467008091C0001B
:1000E00085FFFCCFC093C60080E090E0CF910895DB
:1000F0008BE0809381008DE790E09093890080935E
:10010000880082E080936F00109285001092840036
:100110008091200190912101A0912201B0912301B1
:100120008093350190933601A0933701B093380145
:100130008FB780688FBF089510928100089581E085
:100140008093390108951F920F920FB60F921124D8
:100150000BB60F922F933F934F935F936F937F93C1
:100160008F939F93AF93BF93EF93FF93809135014C
:1001700090913601A0913701B09138010197A10902
:10018000B1098093350190933601A0933701B09364
:100190003801892B8A2B8B2B91F40E949F00809130
:1001A000200190912101A0912201B091230180931F
:1001B000350190933601A0933701B0933801FF9138
:1001C000EF91BF91AF919F918F917F916F915F91CF
:1001D0004F913F912F910F900BBE0F900FBE0F903C
:1001E0001F90189560932001709321018093220144
:1001F000909323016093350170933601809337010A
:10020000909338010895CF92DF92EF92FF926B01A5
:100210007C0160913A0170913B0180913C01909189
:100220003D01A70196010E945003882309F458C09C
:1002300020E030E0A901C701B6010E9450038111FE
:1002400006C0E1E9F0E080818870808305C0E1E9C3
:10025000F0E080818360808328E539E344E75FE351
:10026000C701B6010E94500388233CF48FEF9FEF33
:10027000909399008093980027C020E034E244EFE7
:1002800056E4C701B6010E94720418162CF41092AD
:1002900099001092980018C020E030E040E053E44C
:1002A000C701B6010E9477049B01AC0160E074E2D3
:1002B00084EF9AE40E9455030E94C70361507109BC
:1002C000709399006093980010929500109294009A
:1002D000C0923A01D0923B01E0923C01F0923D0184
:1002E000FF90EF90DF90CF90089580E4809390008E
:1002F0008BE08093910060E070E0CB010E940301ED
:1003000008951092900010929100089580914501F7
:10031000909146018130910571F030F08230910565
:1003200089F00397B1F01BC081E090E09093460103
:100330008093450114C082E090E090934601809341
:1003400045010DC083E090E0909346018093450104
:1003500006C081E090E09093460180934501809132
:100360004501909146018230910549F08330910515
:1003700051F0019759F481E080933401089582E0AF
:1003800080933401089584E080933401089580912E
:100390004001909141018130910559F018F0029788
:1003A00079F014C082E090E0909341018093400185
:1003B0000DC082E090E0909341018093400106C01F
:1003C00081E090E090934101809340018091400151
:1003D000909141018130910539F018F0029741F078
:1003E000089510923301089588E0809333010895B1
:1003F000109233010895809143019091440181301E
:100400009105E9F018F0029751F02CC082E090E0DD
:1004100090934401809343011092420123C00299BA
:1004200007C081E090E090934401809343011AC09B
:1004300082E090E0909344018093430113C00299BD
:100440000BC080914201823038F481E090E09093BB
:1004500044018093430106C082E090E09093440100
:100460008093430180914301909144018130910533
:1004700081F0029741F51092420160E070E0CB01FB
:100480000E9403019091330180913401892B85B939
:100490000895809142018F5F80934201E091320183
:1004A000F0E0EE0FFF1FEE0FFF1FE050FF4F6081E7
:1004B0007181828193810E94030190913301809127
:1004C0003401892B85B9089580913E0190913F01B7
:1004D00082309105F1F128F4009759F0019781F0ED
:1004E00055C08430910509F44BC018F10597C1F14E
:1004F0004DC081E090E090933F0180933E0146C063
:10050000009907C083E090E090933F0180933E0103
:100510003DC0019907C085E090E090933F01809332
:100520003E0134C081E090E090933F0180933E0112
:100530002DC0009907C083E090E090933F01809325
:100540003E0124C082E090E090933F0180933E0101
:100550001DC081E090E090933F0180933E0116C062
:10056000019907C085E090E090933F0180933E01A0
:100570000DC084E090E090933F0180933E0106C05F
:1005800081E090E090933F0180933E0180913E0195
:1005900090913F018230910541F08430910569F0DE
:1005A000892B91F4109232010895809132018730A5
:1005B00058F48F5F8093320108958091320188232F
:1005C00019F0815080933201089511B88FEF82B9EC
:1005D00084B915B80E94750161E070E080E090E098
:1005E0000E94F2000E94780010924601109245018C
:1005F0001092410110924001109244011092430167
:10060000C12CD12C76016894C1F80F2EF8EE4F2E34
:10061000F3E05F2E612C712CF02D0F2EFCE28F2E5B
:1006200099249394A12CB12CF02D8CE2881681E0B2
:100630009806A104B10428F00E948601812C912C17
:10064000540188EE481683E058066104710428F0CE
:100650000E94C701412C512C320182E0C816D104FE
:10066000E104F10428F00E94FB01C12CD12C760199
:100670000E946402809139018823E1F310923901CC
:100680008FEF881A980AA80AB80A8FEF481A580AF2
:10069000680A780A8FEFC81AD80AE80AF80AC5CF9C
:1006A0000E94FD0308F481E008950E9469030C9400
:1006B00038040E94310458F00E942A0440F029F4C2
:1006C0005F3F29F00C94210451110C946C040C949C
:1006D00027040E94490468F39923B1F3552391F349
:1006E000951B550BBB27AA2762177307840738F0A1
:1006F0009F5F5F4F220F331F441FAA1FA9F335D0FE
:100700000E2E3AF0E0E832D091505040E695001CB1
:10071000CAF72BD0FE2F29D0660F771F881FBB1F6B
:10072000261737074807AB07B0E809F0BB0B802D49
:10073000BF01FF2793585F4F3AF09E3F510578F075
:100740000C9421040C946C045F3FE4F3983ED4F3C2
:10075000869577956795B795F7959F5FC9F7880F49
:10076000911D9695879597F90895E1E0660F771F9B
:10077000881FBB1F621773078407BA0720F0621B2C
:10078000730B840BBA0BEE1F88F7E09508950E9457
:10079000CE036894B1110C946C0408950E94510426
:1007A00088F09F5798F0B92F9927B751B0F0E1F032
:1007B000660F771F881F991F1AF0BA95C9F714C0E2
:1007C000B13091F00E946B04B1E008950C946B0479
:1007D000672F782F8827B85F39F0B93FCCF386951B
:1007E00077956795B395D9F73EF490958095709578
:1007F00061957F4F8F4F9F4F0895990F0008550FB8
:10080000AA0BE0E8FEEF16161706E807F907C0F096
:1008100012161306E407F50798F0621B730B840B9E
:10082000950B39F40A2661F0232B242B252B21F478
:1008300008950A2609F4A140A6958FEF811D811D18
:10084000089597F99F6780E870E060E008959FEF52
:1008500080EC089500240A94161617061806090657
:10086000089500240A941216130614060506089526
:10087000092E0394000C11F4882352F0BB0F40F4AE
:10088000BF2B11F460FF04C06F5F7F4F8F4F9F4FEE
:10089000089557FD9058440F551F59F05F3F71F070
:1008A0004795880F97FB991F61F09F3F79F08795D7
:1008B0000895121613061406551FF2CF4695F1DF60
:1008C00008C0161617061806991FF1CF86957105F0
:1008D000610508940895E894BB2766277727CB0124
:1008E00097F908950E94FD0308F48FEF08950E9480
:1008F0008A040C9438040E942A0438F00E943104BF
:1009000020F0952311F00C9421040C942704112459
:100910000C946C040E94490470F3959FC1F3950FE9
:1009200050E0551F629FF001729FBB27F00DB11D73
:10093000639FAA27F00DB11DAA1F649F6627B00D03
:10094000A11D661F829F2227B00DA11D621F739FEC
:10095000B00DA11D621F839FA00D611D221F749FFA
:100960003327A00D611D231F849F600D211D822F41
:10097000762F6A2F11249F5750409AF0F1F0882368
:100980004AF0EE0FFF1FBB1F661F771F881F915095
:100990005040A9F79E3F510580F00C9421040C941F
:1009A0006C045F3FE4F3983ED4F3869577956795A2
:1009B000B795F795E7959F5FC1F7FE2B880F911DBF
:0C09C0009695879597F90895F894FFCF5D
:1009CC00A4D082437BD49243A4D0A443719DAE4364
:1009DC000000C4430000DC43A4F0F64300D0024402
:1009EC000100000000000002000000006700000091
:0209FC000000F9
:00000001FF
