:100000000C9446000C9465000C9465000C946500FB
:100010000C9465000C9465000C9465000C946500CC
:100020000C9465000C9465000C9465000C946500BC
:100030000C9465000C94B4000C9465000C9465005D
:100040000C9465000C9465000C9465000C9465009C
:100050000C9465000C9465000C9465000C9465008C
:100060000C9465000C9465000C9465000C9465007C
:100070000C9465000C9465000C9465000C9465006C
:100080000C9465000C9465000C94650011241FBE4F
:10009000CFEFD0E4DEBFCDBF11E0A0E0B1E0E2EDF4
:1000A000F7E000E00BBF02C007900D92A833B10744
:1000B000D9F721E0A8E3B1E001C01D92A934B2074D
:1000C000E1F70E944E030C94E7030C940000CF93D9
:1000D000C82F8A3019F48DE00E9467008091C0001B
:1000E00085FFFCCFC093C60080E090E0CF910895DB
:1000F00060930501709306018093070190930801B6
:100100006093390170933A0180933B0190933C01D5
:1001100008958BE0809381008DE790E090938900B3
:100120008093880082E080936F0010928500109287
:1001300084008091050190910601A0910701B09182
:1001400008018093390190933A01A0933B01B09349
:100150003C018FB780688FBF089510928100089589
:1001600081E080933D0108951F920F920FB60F9288
:1001700011240BB60F922F933F934F935F936F937E
:100180007F938F939F93AF93BF93EF93FF93809150
:10019000390190913A01A0913B01B0913C01019746
:1001A000A109B1098093390190933A01A0933B01D1
:1001B000B0933C01892B8A2B8B2B91F40E94B000C9
:1001C0008091050190910601A0910701B09108016D
:1001D0008093390190933A01A0933B01B0933C0185
:1001E000FF91EF91BF91AF919F918F917F916F910F
:1001F0005F914F913F912F910F900BBE0F900FBECB
:100200000F901F9018950F931F93CF93DF93B62FE6
:10021000A72FF82FE92F022F132FD42FC52F04C09B
:10022000062F172FD82FC92F6B2F7A2F8F2F9E2F86
:10023000202F312F4D2F5C2F0E94C503B02FA12FEF
:10024000FD2FEC2F611571058105910549F7602F90
:10025000712F8D2F9C2FDF91CF911F910F910895BA
:10026000442349F021E030E002C0220F331F6A9599
:10027000E2F7822B089521E030E002C0220F331F05
:100280006A95E2F720958223089521E030E002C0CC
:10029000220F331F6A95E2F78223089540E064E05D
:1002A0008FEF0E94300182B9000080B160E080953C
:1002B0000E944501811180C080B161E080950E945B
:1002C000450181117BC080B162E080950E944501AB
:1002D000811176C080B163E080950E944501811153
:1002E00071C040E065E08FEF0E94300182B90000EC
:1002F00080B160E080950E944501811165C080B1A8
:1003000061E080950E944501811160C080B162E08A
:1003100080950E94450181115BC080B163E08095AA
:100320000E944501811156C040E066E08FEF0E94B7
:10033000300182B9000080B160E080950E944501E3
:1003400081114AC080B161E080950E944501811110
:1003500045C080B162E080950E944501811140C096
:1003600080B163E080950E94450181113BC040E06F
:1003700067E08FEF0E94300182B9000080B160E039
:1003800080950E94450181112FC080B161E0809568
:100390000E94450181112AC080B162E080950E94CF
:1003A0004501811125C080B163E080950E9445011F
:1003B0008823F9F084E4089581E3089584E308959F
:1003C00087E308958AE2089582E3089585E3089516
:1003D00088E3089580E3089583E3089586E308950C
:1003E00089E3089583E2089581E4089582E40895FD
:1003F00083E4089540E050E00CC000002F5F3F4FC1
:1004000002C020E030E0273063E03607B4F34F5FEE
:100410005F4F48175907ACF308959BB19F7B9BB979
:1004200088B98BB180688BB900008BB18F778BB99D
:1004300082E090E00E94FA01089581E00E940D029E
:100440000895813120F481580E940D02089581554C
:100450000E940D02089584E690E00E94FA0188E36C
:100460000E940D0286E00E940D028FE00E940D02A4
:1004700081E00E940D028AE090E00E94FA01089556
:100480009BB190649BB988B98BB180688BB900002F
:100490008BB18F778BB981E090E00E94FA010895CB
:1004A000EF92FF920F931F93CF93DF93182FEB01DF
:1004B0000E941D020EC001E0010F812F0E94210247
:1004C0007E018FEFE81AF80A88810E944002102FFF
:1004D000E70188818111EFCFDF91CF911F910F91BB
:1004E000FF90EF900895CF93DF93EC018230910558
:1004F00009F4A6C02CF4009759F0019791F1CAC0F5
:100500008330910509F4B2C0049709F4B8C0C2C0A1
:1005100080913801823020F48F5F80933801BAC017
:10052000489BB0C08091040190910101891721F08E
:1005300090910001891310C00E941D0267E171E0D3
:1005400081E00E9450028AE08093010180E2809362
:100550000001C3E0D0E09EC010923801C1E0D0E0BD
:1005600099C080913801811104C08F5F8093380158
:1005700091C080910101803199F481E00E942102B3
:1005800080E20E94400280E10E94210280910301EA
:100590000E9440028091010181508093010113C0AB
:1005A0008F5F0E94210280E20E944002809101013F
:1005B0000E942102809103010E944002809101016A
:1005C00081508093010180910101811103C080E17C
:1005D0008093010180910001803299F481E10E94B1
:1005E000210280E20E94400280E20E94210280916A
:1005F00002010E944002809100018150809300011D
:1006000013C08F5F0E94210280E20E94400280910D
:1006100000010E942102809102010E94400280910B
:10062000000181508093000180910001803119F414
:1006300080E28093000110923801C2E0D0E02AC02D
:10064000809104010E942102499903C081E08093B6
:1006500004014A9903C081E180930401809138012B
:10066000811113C08F5F8093380114C0489912C064
:100670000E941D0210923801C0E0D0E00BC04899E2
:1006800007C008C0C4E0D0E005C0C0E0D0E002C0B0
:10069000C3E0D0E0CE01DF91CF910895CF93DF93F7
:1006A00000D0CDB7DEB790EF91B98FE082B92FEFD0
:1006B00024B915B827B918B89AB98BB9EEE3F1E0A7
:1006C000FA83E983108285E090E0A0E0B0E08183C6
:1006D0009283A383B48385839683A783B08783E7BC
:1006E00092E09287818765E070E080E090E00E9470
:1006F00078000E9489000E942B0200E010E03BC0BD
:10070000F801EE0FFF1F81E090E08C0F9D1FE80FB6
:10071000F91FE080F180D70115964D915D916D91A3
:100720007C91189711968D919D910D90BC91A02D63
:10073000481759076A077B0781F4D7011996ED918D
:10074000FC911A978C91082E000C990B0995F701D2
:1007500080831582168217821086F7018581968123
:10076000A781B0850196A11DB11D85839683A783BE
:10077000B0870F5F1F4F0115110511F280913D01E8
:100780008823E1F310923D01B8CFA1E21A2EAA1BF3
:10079000BB1BFD010DC0AA1FBB1FEE1FFF1FA21731
:1007A000B307E407F50720F0A21BB30BE40BF50B2E
:1007B000661F771F881F991F1A9469F760957095B7
:1007C000809590959B01AC01BD01CF010895F894EF
:0207D000FFCF59
:1007D200200A2323010100000000000002000000A3
:1007E20000670000000000596F75206C6F7365216F
:1007F2002020202020202020202020202054727918
:0808020020416761696E3F00AF
:00000001FF
