:100000000C9446000C9465000C9465000C946500FB
:100010000C9465000C9465000C9465000C946500CC
:100020000C9465000C9465000C9465000C946500BC
:100030000C9465000C9465000C9465000C946500AC
:100040000C9465000C9465000C9465000C9465009C
:100050000C9465000C9465000C9465000C9465008C
:100060000C9465000C9465000C9465000C9465007C
:100070000C9465000C9465000C9465000C9465006C
:100080000C9465000C9465000C94650011241FBE4F
:10009000CFEFD0E4DEBFCDBF11E0A0E0B1E0EAEBEE
:1000A000F6E000E00BBF02C007900D92AE30B10742
:1000B000D9F721E0AEE0B1E001C01D92A431B20752
:1000C000E1F70E94B9010C945B030C940000CF93FC
:1000D000C82F8A3019F48DE00E9467008091C0001B
:1000E00085FFFCCFC093C60080E090E0CF910895DB
:1000F000CF92DF92EF92FF926B017C0160910E0133
:1001000070910F018091100190911101A70196014A
:100110000E94C701882309F458C020E030E0A901FB
:10012000C701B6010E94C701811106C0E1E9F0E0F4
:1001300080818870808305C0E1E9F0E08081836080
:10014000808328E539E344E75FE3C701B6010E94F5
:10015000C70188233CF48FEF9FEF90939900809321
:10016000980027C020E034E244EF56E4C701B6010E
:100170000E94E90218162CF410929900109298002F
:1001800018C020E030E040E053E4C701B6010E940F
:10019000EE029B01AC0160E074E284EF9AE40E94FD
:1001A000CC010E943E0261507109709399006093E6
:1001B00098001092950010929400C0920E01D09277
:1001C0000F01E0921001F0921101FF90EF90DF908B
:1001D000CF90089580E4809390008BE0809391000D
:1001E00060E070E0CB010E947800089510929000CA
:1001F0001092910008958091120190911301823024
:10020000910509F449C028F4009759F0019781F04D
:1002100084C08330910509F455C0049709F468C07F
:100220007CC081E090E0909313018093120175C02F
:1002300080B190E08095909587709927019739F467
:1002400082E090E0909313018093120166C080B128
:1002500090E08095909587709927029739F483E014
:1002600090E0909313018093120157C080B190E009
:100270008095909587709927049739F484E090E0F1
:10028000909313018093120148C081E090E0909315
:1002900013018093120141C080B190E08095909548
:1002A00087709927019739F482E090E090931301C9
:1002B0008093120132C081E090E09093130180930B
:1002C00012012BC080B190E080959095877099279E
:1002D000029739F483E090E0909313018093120128
:1002E0001CC081E090E0909313018093120115C02F
:1002F00080B190E08095909587709927049739F4A4
:1003000084E090E0909313018093120106C081E095
:1003100090E09093130180931201809112019091CB
:1003200013018230910581F018F4019739F0089596
:100330008330910581F00497A9F0089560E070E0A2
:10034000CB010E947800089564EA70ED82E893E49E
:100350000E94780008956BE774ED82E993E40E94AF
:100360007800089564EA70ED84EA93E40E947800CE
:10037000089511B88FEF82B984B915B80E94EA00C8
:1003800010921301109212010E94FB00FDCF0E94F7
:10039000740208F481E008950E94E0010C94AF0219
:1003A0000E94A80258F00E94A10240F029F45F3F89
:1003B00029F00C94980251110C94E3020C949E02C3
:1003C0000E94C00268F39923B1F3552391F3951B62
:1003D000550BBB27AA2762177307840738F09F5F66
:1003E0005F4F220F331F441FAA1FA9F335D00E2ED3
:1003F0003AF0E0E832D091505040E695001CCAF740
:100400002BD0FE2F29D0660F771F881FBB1F261702
:1004100037074807AB07B0E809F0BB0B802DBF01D9
:10042000FF2793585F4F3AF09E3F510578F00C94A8
:1004300098020C94E3025F3FE4F3983ED4F3869570
:1004400077956795B795F7959F5FC9F7880F911DC9
:100450009695879597F90895E1E0660F771F881FB5
:10046000BB1F621773078407BA0720F0621B730B68
:10047000840BBA0BEE1F88F7E09508950E944502A1
:100480006894B1110C94E30208950E94C80288F0A8
:100490009F5798F0B92F9927B751B0F0E1F0660F48
:1004A000771F881F991F1AF0BA95C9F714C0B13089
:1004B00091F00E94E202B1E008950C94E202672FED
:1004C000782F8827B85F39F0B93FCCF386957795B8
:1004D0006795B395D9F73EF49095809570956195A1
:1004E0007F4F8F4F9F4F0895990F0008550FAA0B0C
:1004F000E0E8FEEF16161706E807F907C0F0121637
:100500001306E407F50798F0621B730B840B950B39
:1005100039F40A2661F0232B242B252B21F408958E
:100520000A2609F4A140A6958FEF811D811D08952B
:1005300097F99F6780E870E060E008959FEF80EC96
:10054000089500240A941616170618060906089539
:1005500000240A9412161306140605060895092E9F
:100560000394000C11F4882352F0BB0F40F4BF2B0E
:1005700011F460FF04C06F5F7F4F8F4F9F4F08954E
:1005800057FD9058440F551F59F05F3F71F0479544
:10059000880F97FB991F61F09F3F79F08795089529
:1005A000121613061406551FF2CF4695F1DF08C048
:1005B000161617061806991FF1CF86957105610565
:1005C00008940895E894BB2766277727CB0197F90D
:1005D00008950E94740208F48FEF08950E940103A9
:1005E0000C94AF020E94A10238F00E94A80220F0F1
:1005F000952311F00C9498020C949E0211240C94F3
:10060000E3020E94C00270F3959FC1F3950F50E082
:10061000551F629FF001729FBB27F00DB11D639FB4
:10062000AA27F00DB11DAA1F649F6627B00DA11D5A
:10063000661F829F2227B00DA11D621F739FB00D00
:10064000A11D621F839FA00D611D221F749F332770
:10065000A00D611D231F849F600D211D822F762F09
:100660006A2F11249F5750409AF0F1F088234AF0E6
:10067000EE0FFF1FBB1F661F771F881F9150504052
:10068000A9F79E3F510580F00C9498020C94E30268
:100690005F3FE4F3983ED4F3869577956795B795D9
:1006A000F795E7959F5FC1F7FE2B880F911D9695F3
:0A06B000879597F90895F894FFCF9D
:0E06BA000000000200000000670000000000C9
:00000001FF
