:100000000C944D000C946C000C946C000C946C00DF
:100010000C946C000C946C000C946C000C946C00B0
:100020000C946C000C946C000C946C000C946C00A0
:100030000C946C000C946C000C946C000C946C0090
:100040000C946C000C946C000C946C000C946C0080
:100050000C946C000C946C000C946C000C946C0070
:100060000C946C000C946C000C946C000C946C0060
:100070000C946C000C946C000C946C000C946C0050
:100080000C946C000C946C000C946C009000990023
:10009000B500BC00D700DE00E50011241FBECFEF85
:1000A000D0E4DEBFCDBF11E0A0E0B1E0E4E7F2E0D4
:1000B00000E00BBF02C007900D92AE30B107D9F738
:1000C00021E0AEE0B1E001C01D92A231B207E1F73C
:1000D0000E941E010C9438010C940000CF93C82F8D
:1000E0008A3019F48DE00E946E008091C00085FF77
:1000F000FCCFC093C60080E090E0CF91089580B11E
:1001000080958F7080930E01E0911001F0911101A4
:10011000E730F10508F073C0EA5BFF4F0C942F0144
:1001200081E090E0909311018093100110920F01F3
:1001300066C0833039F484E090E09093110180939D
:1001400010015DC0813039F482E090E0909311019C
:100150008093100154C0823009F051C085E090E0D6
:1001600090931101809310014AC083E090E0909336
:1001700011018093100143C0813039F483E090E095
:1001800090931101809310013AC0811107C081E062
:1001900090E0909311018093100131C0833079F584
:1001A00084E090E0909311018093100128C081E0D9
:1001B00090E0909311018093100121C086E090E0BF
:1001C00090931101809310011AC0823039F486E0B7
:1001D00090E0909311018093100111C0811107C02C
:1001E00081E090E0909311018093100108C083306A
:1001F00031F484E090E0909311018093100180919C
:1002000010019091110184309105A9F0853091057C
:1002100051F0029791F480910F01893070F48F5F53
:1002200080930F01089580910F01882331F0815050
:1002300080930F01089510920F01089511B88FEF68
:1002400082B987B918B8109211011092100110925A
:100250000F010E947F0080910F0188B9FACFEE0F45
:10026000FF1F0024001C0BBE0790F691E02D09949F
:04027000F894FFCF30
:0E02740000000002000000006E00000000000C
:00000001FF
