:100000000C9450000C946F000C946F000C946F00D3
:100010000C946F000C946F000C946F000C946F00A4
:100020000C946F000C946F000C946F000C946F0094
:100030000C946F000C9426010C946F000C946F00CC
:100040000C946F000C946F000C946F000C946F0074
:100050000C946F000C946F000C946F000C946F0064
:100060000C946F000C946F000C946F000C946F0054
:100070000C946F000C946F000C946F000C946F0044
:100080000C946F000C946F000C946F009401A3010A
:10009000AA01E00116024C028202B402A402C402C8
:1000A00011241FBECFEFD0E4DEBFCDBF11E0A0E032
:1000B000B1E0E2E9F6E000E00BBF02C007900D926C
:1000C000AE31B107D9F721E0AEE1B1E001C01D9238
:1000D000A632B207E1F70E9418030C9447030C9470
:1000E000000040E050E00CC000002F5F3F4F02C016
:1000F00020E030E0273063E03607B4F34F5F5F4F16
:1001000048175907ACF308959BB19F7B9BB988B9F9
:100110008BB180688BB900008BB18F778BB982E08F
:1001200090E00E947100089581E00E94840008958B
:10013000813120F481580E948400089581550E94E5
:100140008400089584E690E00E94710088E30E9494
:10015000840086E00E9484008FE00E94840081E099
:100160000E9484008AE090E00E94710008959BB193
:1001700090649BB988B98BB180688BB900008BB152
:100180008F778BB981E090E00E9471000895EF9223
:10019000FF920F931F93CF93DF93182FEB010E94D1
:1001A00094000EC001E0010F812F0E9498007E0193
:1001B0008FEFE81AF80A88810E94B700102FE70134
:1001C00088818111EFCFDF91CF911F910F91FF9027
:1001D000EF900895CF93C82F8A3019F48DE00E94D4
:1001E000EA008091C00085FFFCCFC093C60080E08C
:1001F00090E0CF9108958BE0809381008DE790E0AF
:10020000909389008093880082E080936F00109221
:100210008500109284008091010190910201A091CB
:100220000301B091040180931F0190932001A093DA
:100230002101B09322018FB780688FBF089510927B
:100240008100089581E08093230108951F920F9209
:100250000FB60F9211240BB60F922F933F934F932B
:100260005F936F937F938F939F93AF93BF93EF931E
:10027000FF9380911F0190912001A0912101B091E5
:1002800022010197A109B10980931F0190932001D8
:10029000A0932101B0932201892B8A2B8B2B91F4FF
:1002A0000E9422018091010190910201A09103011D
:1002B000B091040180931F0190932001A09321012C
:1002C000B0932201FF91EF91BF91AF919F918F91D8
:1002D0007F916F915F914F913F912F910F900BBE46
:1002E0000F900FBE0F901F901895609301017093AF
:1002F0000201809303019093040160931F017093A6
:1003000020018093210190932201089580B1817092
:10031000E0912401F0912501EA30F10508F04EC189
:10032000EA5BFF4F0C943E030E9494008091000111
:1003300090E0C0960E94B70082E090E09093250183
:10034000809324013BC182E090E09093250180934B
:10035000240134C1811116C080910001882359F015
:100360008150809300010E9494008091000190E0F0
:10037000C0960E94B70086E090E09093250180939C
:1003800024011CC1882359F090911E01943038F447
:1003900082E090E090932501809324010FC188238F
:1003A00009F40CC180911E01843008F407C183E078
:1003B00090E0909325018093240110921E01FEC0CD
:1003C000811116C080910001893058F48F5F8093AD
:1003D00000010E9494008091000190E0C0960E946C
:1003E000B70086E090E09093250180932401E6C059
:1003F000882359F090911E01943038F483E090E006
:100400009093250180932401D9C0882309F4D6C094
:1004100080911E01843008F4D1C084E090E0909374
:1004200025018093240110921E01C8C0811116C0BD
:1004300080910001882359F08150809300010E942F
:1004400094008091000190E0C0960E94B70086E081
:1004500090E09093250180932401B0C0882359F047
:1004600090911E01943038F484E090E0909325013F
:1004700080932401A3C0882309F4A0C080911E01A9
:10048000843008F49BC085E090E090932501809330
:10049000240110921E0192C0811116C080910001AA
:1004A000893058F48F5F809300010E9494008091FE
:1004B000000190E0C0960E94B70086E090E0909323
:1004C0002501809324017AC0882359F090911E0160
:1004D000943038F485E090E09093250180932401D6
:1004E0006DC0882309F46AC080911E01843008F42D
:1004F00065C081E090E090932501809324011092E3
:100500001E015CC0811107C086E090E09093250138
:100510008093240153C080910001893071F40E94BE
:10052000940063E171E081E00E94C70089E090E0FF
:10053000909325018093240141C088E090E090933E
:100540002501809324013AC0811107C087E090E023
:10055000909325018093240131C088E090E090932E
:100560002501809324012AC0811107C087E090E013
:10057000909325018093240121C081E090E0909325
:100580002501809324011AC0811112C085E0809357
:1005900000010E9494008091000190E0C0960E94AA
:1005A000B70087E090E0909325018093240106C076
:1005B00089E090E0909325018093240180912401AB
:1005C000909125018230910599F028F4009751F01F
:1005D000019759F0089584309105D1F088F005977E
:1005E000F9F0089510921E01089510921E010895C9
:1005F00081E085B980911E018F5F80931E0108956F
:1006000082E085B980911E018F5F80931E0108955D
:1006100084E085B980911E018F5F80931E0108954B
:1006200082E085B980911E018F5F80931E0108953D
:1006300011B88FEF82B984B915B887B918B88AB9DB
:100640001BB86AE070E080E090E00E9475010E94B3
:10065000FB000E94A20081E00E94980010922501F8
:100660001092240185E0809300010E948601809110
:1006700023018823E1F310922301F7CFEE0FFF1F30
:100680000024001C0BBE0790F691E02D0994F8940D
:02069000FFCF9A
:1006920005010000000000000200000000EA000066
:0E06A200000000594F552057494E21212100DC
:00000001FF
