:100000000C9446000C945D000C945D000C945D0013
:100010000C945D000C945D000C945D000C945D00EC
:100020000C945D000C945D000C945D000C945D00DC
:100030000C945D000C945D000C945D000C945D00CC
:100040000C945D000C945D000C945D000C945D00BC
:100050000C945D000C945D000C945D000C945D00AC
:100060000C945D000C945D000C945D000C945D009C
:100070000C945D000C945D000C945D000C945D008C
:100080000C945D000C945D000C945D0011241FBE67
:10009000CFEFD0E4DEBFCDBF11E0A0E0B1E0EEE2F3
:1000A000F1E000E00BBF02C007900D92AE30B10747
:1000B000D9F70E947A000C9495000C940000CF931D
:1000C000C82F8A3019F48DE00E945F009091C00023
:1000D00095FFFCCFC093C60080E090E0CF910895DB
:1000E000992787FD909502C0959587956A95E2F7C7
:1000F0008170089511B88FEF82B914B885B987B9A6
:1001000018B800B113B1C0E0D0E00BC06C2F802F45
:100110000E947000D80F6C2F812F0E947000D80FA2
:0E012000CF5FC83098F3D8B9ECCFF894FFCF7A
:0E012E0000000002000000005F000000000062
:00000001FF
