:100000000C944E000C946D000C946D000C946D00DB
:100010000C946D000C946D000C946D000C946D00AC
:100020000C946D000C946D000C946D000C946D009C
:100030000C946D000C94AB000C946D000C946D004E
:100040000C946D000C946D000C946D000C946D007C
:100050000C946D000C946D000C946D000C946D006C
:100060000C946D000C946D000C946D000C946D005C
:100070000C946D000C946D000C946D000C946D004C
:100080000C946D000C946D000C946D00190120010E
:1000900030014001500160018001700111241FBE38
:1000A000CFEFD0E4DEBFCDBF11E0A0E0B1E0E2EAE7
:1000B000F3E000E00BBF02C007900D92A231B10740
:1000C000D9F721E0A2E1B1E001C01D92A931B20748
:1000D000E1F70E94AC010C94CF010C940000CF9387
:1000E000C82F8A3019F48DE00E946F008091C00003
:1000F00085FFFCCFC093C60080E090E0CF910895CB
:100100008BE0809381008DE790E09093890080934D
:10011000880082E080936F00109285001092840026
:100120008091000190910101A0910201B091030121
:100130008093120190931301A0931401B0931501C1
:100140008FB780688FBF089510928100089581E075
:100150008093160108951F920F920FB60F921124EB
:100160000BB60F922F933F934F935F936F937F93B1
:100170008F939F93AF93BF93EF93FF93809112015F
:1001800090911301A0911401B09115010197A1095B
:10019000B1098093120190931301A0931401B093BD
:1001A0001501892B8A2B8B2B91F40E94A70080913B
:1001B000000190910101A0910201B091030180938F
:1001C000120190931301A0931401B0931501FF91B4
:1001D000EF91BF91AF919F918F917F916F915F91BF
:1001E0004F913F912F910F900BBE0F900FBE0F902C
:1001F0001F90189560930001709301018093020194
:100200009093030160931201709313018093140182
:1002100090931501089580B18170E0911701F091DC
:100220001801E830F10508F07AC0EA5BFF4F0C9442
:10023000C60181E090E090931801809317016FC090
:10024000811107C085E090E0909318018093170119
:1002500066C082E090E090931801809317015FC020
:10026000811107C085E090E09093180180931701F9
:1002700056C083E090E090931801809317014FC01F
:10028000811107C085E090E09093180180931701D9
:1002900046C084E090E090931801809317013FC01E
:1002A000811107C085E090E09093180180931701B9
:1002B00036C081E090E090931801809317012FC021
:1002C000811107C085E090E0909318018093170199
:1002D00026C087E090E090931801809317011FC01B
:1002E000811107C086E090E0909318018093170178
:1002F00016C087E090E090931801809317010FC01B
:10030000811107C086E090E0909318018093170157
:1003100006C081E090E090931801809317018091CE
:100320001701909118018230910569F018F4019736
:1003300039F008958330910549F0049751F00895FC
:1003400081E085B9089582E085B9089584E085B992
:10035000089582E085B9089511B88FEF82B984B904
:1003600015B86EE170E080E090E00E94FA000E9413
:10037000800010921801109217010E940B018091C9
:1003800016018823E1F310921601F7CFEE0FFF1F3D
:100390000024001C0BBE0790F691E02D0994F89400
:0203A000FFCF8D
:1003A2000100000000000002000000006F000000D9
:0203B200000049
:00000001FF
